:020000040800F2
:10000000C0080020A9010008B1010008B3010008E0
:10001000B5010008B7010008B901000800000000A0
:10002000000000000000000000000000BB0100080C
:10003000BD01000800000000BF0100081512000803
:10004000C3010008C3010008C3010008C301000880
:10005000C3010008C3010008C3010008C301000870
:10006000C3010008C3010008C3010008C301000860
:10007000C3010008C3010008C3010008C301000850
:10008000C3010008C3010008C3010008000000000C
:10009000000000000000000000000000C301000894
:1000A000C3010008C3010008C3010008C301000820
:1000B000C3010008C3010008C3010008C301000810
:1000C000C3010008C3010008C3010008C301000800
:1000D000C3010008C3010008C301000800000000BC
:1000E000C3010008C3010008C301000800000000AC
:1000F000000000000000000000000000C301000834
:1001000000000000C3010008C3010008C30100088B
:1001100000000000000000000000000000000000DF
:10012000C3010008C3010008C3010008C30100089F
:10013000C3010008000000000000000000000000F3
:10014000000000000000000000000000C3010008E3
:10015000C3010008C3010008C3010008C30100086F
:10016000C3010008C30100080000000000000000F7
:10017000000000000000000000000000000000007F
:1001800000000000C30100080000000000000000A3
:10019000C3010008DFF80CD000F018F80048004751
:1001A000ED230008C00800200648804706480047A5
:1001B000FEE7FEE7FEE7FEE7FEE7FEE7FEE7FEE717
:1001C000FEE7FEE78D12000895010008064C074D7A
:1001D00006E0E06840F0010394E807009847103417
:1001E000AC42F6D3FFF7DAFF98260008B8260008DD
:1001F00070B58C1810F8015B15F0070301D110F8E9
:10020000013B2A1106D110F8012B03E010F8016B15
:1002100001F8016B5B1EF9D12B0705D40023521E98
:100220000DD401F8013BFAE710F8013BCB1A921C00
:1002300003E013F8015B01F8015B521EF9D5A142FE
:10024000D8D3002070BD31B500F0F4F8044600F0BA
:10025000F1F80099001B8842F9D338BD2DE9F04F21
:10026000DFF888B100224FF001084FF0030A4FF089
:100270000F090BF1040E00BF0B6808FA02F42340CB
:10028000A3426FD14D68022D01D0122D0ED1D50899
:1002900000EB850CDCF820505607F70E09FA07F63C
:1002A000B5430E69BE402E43CCF820600668550069
:1002B0000F790AFA05FC07F0030726EA0C06AF409F
:1002C000374307604E68012E05D0022E03D0112E51
:1002D00001D0122E0ED18768CE6827EA0C07AE40F7
:1002E0003E4386604668A6430C79C4F300149440EC
:1002F00034434460C4688E6824EA0C04AE4026434C
:10030000C6604C68E4006BD5394C256845F48045DF
:100310002560384C22F003052F19D7F808589407A8
:10032000240F09FA04F6B543334EB04201D100263A
:100330002EE0324EB04201D1012629E0304EB042CB
:1003400001D1022624E02F4EB04201D103261FE046
:100350002D4EB04201D104261AE02C4EB04202D1FB
:10036000052615E03CE02A4EB04201D106260FE0FA
:10037000284EB04201D107260AE0274EB04201D1F3
:10038000082605E0254EB04201D1092600E00A26E4
:10039000A6402E43C7F80868DBF800405D464E686B
:1003A0009C43F60300D51C432C60DEF800407546E4
:1003B0004E689C43B60300D51C432C600B4D08359A
:1003C0002C684E689C43F60200D51C432C60074DF8
:1003D0000C352C684E689C43B60200D51C432C603B
:1003E000521C102AFFF448AFBDE8F08F003C0140DA
:1003F0004438024000300140000002400004024046
:1004000000080240000C02400010024000140240AC
:1004100000180240001C024000200240002402405C
:100420000069084000D0012070470AB1018370477D
:10043000418370470148006870470000F4030020C2
:1004400010B5040003D094F8350010B104E0012089
:1004500010BD204600F0BEF9022084F83500206867
:10046000016821F00101016000F032FB304922688F
:10047000B0FBF1F151602F4A6368934206D94FF403
:10048000967359434FF47A73B1FBF3F12368491C17
:1004900019626168914208D84900B0FBF1F0C0F3DD
:1004A0000B01042918D2042016E0A36893B301EBD2
:1004B000C10202EB0112B0FBF2F242F480421205DB
:1004C0002FD043B301EBC10202EB0111B0FBF1F0FD
:1004D00040F4804040F400402168C861D4E907013D
:1004E000084321680860D4E9031008432168886044
:1004F000D4E9050108432168C8602068016841F01B
:1005000001010160002084F83600012084F83500E4
:10051000002010BD00E006E001EB4102B0FBF2F26A
:10052000CDE70120D8E701EB4101B0FBF1F0D1E7C5
:1005300040420F00A08601002DE9F05F044690F8CC
:100540003500DDF828B01E46154601286FD1F5B1FB
:10055000EEB120688069C043800768D594F8340004
:10056000012864D04FF0010884F83480222084F8F8
:100570003500002784F836705A46204600F0BAFC51
:1005800040B194F8360084F8347004287DD10120FD
:10059000BDE8F09FDFF858A1012E1CD02068DFF8DD
:1005A0005091022E0168A9F13C0929D041F48061E3
:1005B0000160206841698069032E68D8012E16D039
:1005C000022E28D05B4600224946204600F02CFD32
:1005D00000285AD138E02068016821F48061016068
:1005E000206841698169016841F4007101605B46DE
:1005F00000225146204600F017FD00286DD112E080
:1006000021F4806101602068016841F400610160AB
:100610002068416980695B4600224946204600F017
:1006200003FD90BB04E020680069287049E05CE0AD
:100630002068016841F40071016020680069287039
:100640002068006968703CE02068016821F48061DE
:1006500001602068006905F8010B761EB6B25B46A2
:1006600000224946204600F0DFFC70B9206801688E
:1006700041F4007101602068006905F8010B2068F1
:10068000006905F8010BB61E17E026E0FFE75B46A0
:1006900000225146204600F0C7FCF0B920680069EE
:1006A00005F8010B2068761EB6B24169C9434907B7
:1006B00004D4006905F8010B761EB6B2002E7FF453
:1006C0007BAF2068016821F4006101605B46012274
:1006D0000849204600F0A8FC08B1032058E784F838
:1006E000358084F83470002052E7022050E7000083
:1006F00040000100020010002DE9F047044690F888
:100700003500DDF820A01D46164601285CD1F6B163
:10071000EDB120688069C043800755D594F8340056
:10072000012851D04FF0010884F83480122084F859
:100730003500002784F836705246204600F038FC19
:1007400040B194F8360084F83470042834D1012084
:10075000BDE8F087206841698069DFF870905346F2
:1007600000224946204600F05FFC28BB216816F8AD
:10077000010B086120686D1EADB24169C94349078C
:1007800005D435B116F8011B01616D1EADB2002D07
:10079000E5D1534600224946204600F045FC58B9B1
:1007A0002068016841F40071016053460122084944
:1007B000204600F039FC08B10320C9E784F83580F1
:1007C00084F834700020C3E70220C1E780000100F4
:1007D0000200100000B500680C4985B0884212D1B3
:1007E0000B48016841F4001101604FF44070009023
:1007F000122001900020029003900420049069468A
:100800000448FFF72BFD05B000BD00000054004078
:10081000403802400004024002480168491C01605F
:1008200070470000F40300200B4810B5016841F444
:1008300000710160016841F480610160016841F468
:1008400080710160032000F03BF8002000F006F802
:1008500000F015F8002010BD003C024010B5044621
:1008600000F01CF94FF47A71B0FBF1F000F02AFBB4
:1008700000222146501E00F003F8002010BD7047F2
:10088000F0B40E4B1B680C46C3F30223C3F10705FB
:10089000042D00D90425191D072901D2002300E0E9
:1008A000DB1E012606FA05F1491E214099409E40B3
:1008B000761E16403143F0BC00F09CBC0CED00E00D
:1008C000064900F0070208684FF6FF03184040EAA7
:1008D0000220034A10430860704700000CED00E05E
:1008E0000000FA052DE9F047DFF8A8A105460E46FD
:1008F000DAF80000684C00F00F016748083406F091
:10090000FF0941F28838B14254D28AF80090DAF8EF
:10091000001001F00F01B1426FD12978890705D588
:100920002168AA6821F0F001114321602978C907E4
:1009300028D06968012914D00068022914D08007E2
:1009400000285ADA206820F0030008432060FFF7EF
:1009500071FD0646686801280ED00228474618D067
:1009600023E000688003EBE78001E9E7FFF762FD21
:10097000801BB84201D964E047462068C0F381007B
:100980000128F3D16EE000BFFFF754FD801BB84291
:1009900057D82068C0F381000228F5D162E000BF7B
:1009A000FFF748FD801BB8424BD8206810F00C0FB1
:1009B000F6D157E02978890705D52168AA6821F082
:1009C000F001114321602978C90741D069680129E4
:1009D00014D00068022914D08007002840DA20686B
:1009E00020F0030008432060FFF724FD07466868F5
:1009F00001280ED0022818D026E031E000688003DC
:100A0000EBE78001E9E700BFFFF714FDC11B41459B
:100A100017D82068C0F381000128F5D118E000BF85
:100A2000FFF708FDC11B41450BD82068C0F38100CA
:100A30000228F5D10CE000BFFFF7FCFCC11B4145CB
:100A400002D90320BDE8F087206810F00C0FF3D125
:100A50008AF80090DAF8000000F00F00B04201D0F0
:100A60000120EFE72878400705D52068E96820F4E1
:100A7000E050084320602878000706D520682969DF
:100A800020F4604040EAC10020600020FFF7E6FE4D
:100A90000020D7E7003C02400038024000B500F0DB
:100AA0002DF808490968F02292FAA2F201F0F0014B
:100AB000B2FA82F2D140044A515CC840034908604E
:100AC00000BD00000838024060250008E003002057
:100AD00000B5FFF7E3FF074909684FF4E05292FAC7
:100AE000A2F201F4E051B2FA82F2D140024A515C22
:100AF000C84000BD083802406025000830B51D48D8
:100B0000006810F00C011C481AD04410042916D0BB
:100B1000082915D11749091F0A6802F03F030A681E
:100B200002F480054FF4800292FAA2F2B2FA82F245
:100B3000D54047F6C07204D0B4FBF3F003E0204682
:100B400030BDB0FBF3F00B680968134092FAA2F2D3
:100B5000B2FA82F2D34058434FF4403292FAA2F2F2
:100B600001F44031B2FA82F2D140491C4900B0FB95
:100B7000F1F030BD083802400024F4002DE9F84FB0
:100B800004460078DFF818A3C64DC0074FF00006F2
:100B90004DD0DAF800105046C1F38101012908D088
:100BA0000068C0F3810002280AD1281D00684002B5
:100BB00006D5286880033AD56068012873D136E0ED
:100BC000DFF8E09209F1020989F80060FFF732FCD2
:100BD000804641F2883705E0FFF72CFCA0EB0800C7
:100BE000B8427DD828688003F6D4207989F80000BF
:100BF0006068012803D0FFF71DFC804614E0FFF772
:100C000019FC804606E000BFFFF714FCA0EB0800CB
:100C1000B842E6D828688003F6D508E0FFF70AFC5A
:100C2000A0EB0800B842DCD828688003F6D420780E
:100C30009D4F80074FF0010B45D5DAF80010504664
:100C400011F00C0F4FF0F80909D00068C0F38100D3
:100C500002280BD19248001F0068400206D4286881
:100C6000800714D5E0680128A8D110E0E068D8B169
:100C7000C7F800B0FFF7DEFB804605E0FFF7DAFBC0
:100C8000A0EB08006428ACD828688007F6D528684F
:100C900099FAA9F22169B2FA82F220F0F8009140A3
:100CA000084328600FE0F8E03E60FFF7C3FB804692
:100CB00006E000BFFFF7BEFBA0EB080064280FD8DA
:100CC00028688007F6D42078000729D5DFF8D0916E
:100CD0007648616909F16C0999B1C0F800B000E08B
:100CE00087E0FFF7A7FB804606E000BFFFF7A2FB07
:100CF000A0EB080064287CD8D9F800008007F5D55F
:100D00000EE00660FFF796FB804605E0FFF792FBDA
:100D1000A0EB080064286CD8D9F800008007F5D44F
:100D20002078400756D55E483830016841F0805140
:100D30000160DFF87C91D9F8001041F48071C9F8A6
:100D40000010FFF777FB804606E000BFFFF772FB5D
:100D5000A0EB080064284CD8D9F80000C005F5D5F0
:100D6000DFF83C8108F1680888F80060FFF762FB53
:100D700041F28839009005E0FFF75CFB0099411AC9
:100D8000494536D8D8F800008007F5D4207A88F88D
:100D90000000A068012803D0FFF74CFB009015E08D
:100DA000FFF748FB009005E0FFF744FB0099411A6C
:100DB00049456AD8D8F800008007F5D50AE000BF99
:100DC000FFF738FB0099411A49455ED8D8F8000072
:100DD0008007F5D4A069E0B3DAF80010C1F381010F
:100DE00002295AD002283E6604D0FFF723FB0446AE
:100DF0004EE04AE0FFF71EFB064604E0FFF71AFB51
:100E0000801B642841D828688001F7D4D4E90710F2
:100E1000084347F6C07292FAA2F2616AB2FA82F20D
:100E20009140A26A4FF0FF3303EB52024FF440337C
:100E300093FAA3F3B3FA83F39A40114308434FF0B4
:100E4000706292FAA2F2E16AB2FA82F29140084329
:100E500000E020E040F000511148001F0160C7F899
:100E600060B0FFF7E7FA044605E000BFFFF7E2FADB
:100E7000001B642809D828688001F7D50BE000BF63
:100E8000FFF7D8FA001B642802D90320BDE8F88FC9
:100E900028688001F4D40020F8E70120F6E700007C
:100EA000083802400038024000004742800E4742A6
:100EB0000070004002480168491C01607047000052
:100EC000DC03002010B5401EB0F1807F01D301206B
:100ED00010BD4FF0E02460610F21601700F08AF927
:100EE0000020A06107202061002010BD10B5FFF791
:100EF000E1FF10BD2DE9F047044600680D4691461C
:100F0000016841F4806101602068016841F48071EA
:100F1000016013464FF0011700223946204600F0C9
:100F200083F8A0BB206907F10108B0F5804F12D00B
:100F30000620216800EAD51646F0F00008614A460E
:100F4000F91D204600F0B5F848B100BF94F836000E
:100F500004282BD01BE0E8B240F001001CE021681F
:100F6000E8B208614A464146204600F0A2F800284F
:100F7000ECD1206841698169016841F480710160A8
:100F80004B4600223946204600F04EF810B10320AF
:100F9000BDE8F08746F0F100216808614A46414605
:100FA000204600F086F80028D0D1F1E70120EFE7D5
:100FB00070B5044600680D461646016841F480711C
:100FC0000160134600224FF00111204600F02CF87A
:100FD000A0B92069B0F5804F12D00620216800EA40
:100FE000D51040F0F000086132460E49204600F06E
:100FF00060F840B194F83600042810D0032070BD8A
:1010000005F0FE0000E0E8B22168086105493246BB
:10101000891F204600F04DF80028EBD170BD01205B
:1010200070BD0000080001002DE9F05F1E469046EB
:101030000C460546FFF7FEF981464FF0000A4FF0D7
:10104000010BC4F30747B8F1000F09D024E0701C6E
:1010500006D0D6B1FFF7EEF9A0EB0900B04214D8E4
:101060002868012F06D0806924EA00000004000CE3
:101070001BD0ECE74069F7E7701C0DD02EB1FFF7ED
:10108000D9F9A0EB0900B04206D985F835B085F84A
:1010900034A00320BDE8F09F2868012F07D08069A5
:1010A00024EA00000004000CE6D00020F2E74069CA
:1010B000F6E72DE9F04791460D460446FFF7BAF9E9
:1010C000824600274FF00108C5F3074629E0206853
:1010D0004069C043400512D42068016841F40071A2
:1010E000016021686FF480604861042084F8360054
:1010F00084F8358084F834700120BDE8F087B9F1B8
:10110000FF3F0ED0B9F1000F05D0FFF793F9A0EB28
:101110000A01494505D984F8358084F834700320E4
:10112000EBE72068012E06D0806925EA0000000464
:10113000000CE2D0CBE74069F7E70000F0B52948A2
:1011400085B0016841F004010160016841F080014F
:101150000160016841F001010160016841F0020194
:10116000016000244FF40050CDE900041E4E694692
:1011700030460294FFF772F840F2333000900125B8
:10118000CDE90154194F694638460394FFF766F8D4
:101190000C2000900220CDE901040720CDE9034096
:1011A00069463846FFF75AF8C020CDE90004694681
:1011B00038460294FFF752F840F271400090CDE9B2
:1011C000015469460A480394FFF748F880200090CC
:1011D000CDE90154694630460394FFF73FF805B066
:1011E000F0BD00003038024000080240000002401C
:1011F000000402400907090E002806DA00F00F007B
:1012000000F1E02080F8141D704700F1E02080F824
:101210000014704710B5FFF7FFFABDE81040FFF764
:1012200065BE000030B5174891B0016841F08051AB
:1012300001601548016821F4404141F4004101601A
:1012400001200390022406200490009400250694B7
:101250001020CDE907504FF4A870099004200A909F
:1012600007200B906846FFF789FC0CA9052081E850
:101270003100E002CDE90F0502210CA8FFF732FB97
:1012800011B030BD40380240007000401048016885
:1012900041F4700101600F48016841F001010160F3
:1012A0000C4A00210832116002680B4B1A400260A0
:1012B000031D0A4A1A60026822F48022026005486F
:1012C0000C30016002495806803908607047000000
:1012D00088ED00E000380240FFFFF6FE10300024E9
:1012E000042905D8C9060B0EC722142100F024BB1F
:1012F0006FF00100704738B50C466A464F2100F088
:101300004FFA9DF80010C1F3C201217038BD0000F2
:1013100038B50C466A46502100F07DFA002812D1FB
:10132000094ABDF800509188C5EBC505ED02491C7E
:10133000B5FBF1F11389D288044D35F812205343DF
:10134000B1FBF3F1216038BD4400002050250008B6
:1013500038B50C460546FFF7DBFF002808D16A4682
:101360004E21284600F01CFA9DF800100909616022
:1013700038BD000010B521F04004072C00D9072427
:1013800044F040023F2100F045FC002801D1014912
:10139000CC8010BD4400002010B529B1491E8CB28C
:1013A0004FF4E8718C4201D90C4602E0FF2C00D1C9
:1013B000641C2246402100F050FC002801D1014964
:1013C0008C8010BD4400002040F6F612914200D3FC
:1013D00011460A22B1FBF2F1CAB23E2100F01ABC5A
:1013E000032903D80A46382100F014BC6FF001002D
:1013F000704770B514460A4605463C2100F00AFCC9
:10140000002806D122462846BDE870403A2100F067
:1014100001BC70BD072903D80A46152100F0FABBAC
:101420006FF001007047000003480449807A01EB27
:10143000400030F8020C7047440000204A250008A4
:1014400038B56423009313460A4601460448FFF763
:1014500073F8040002D0024800F000FA204638BDBC
:101460008804002038B56423009313460A460146D9
:101470000448FFF741F9040002D0024800F0EEF9F9
:10148000204638BD880400207CB5174C0646552000
:101490002080642060800221A172A0800120E08071
:1014A0002081E072C82060656A462421304600F041
:1014B00077F9050015D19DF8000084F864003046E6
:1014C00000F0E6FB04000CD401AA1621304600F01F
:1014D00067F9050005D19DF80400012800D104B189
:1014E000012528467CBD00004400002070B504465C
:1014F00000F002FA00284CD10421204600F04CF8FC
:10150000002846D1C8220A21204600F030F90028E0
:101510003FD164212046FFF73FFF002839D1C82181
:101520002046FFF751FF002833D100212046FFF766
:1015300021FF00282DD1FF2200212046FFF759FF6F
:10154000002826D104212046FFF7CAFE002820D11A
:10155000104800210A46C16080F84E1080F84F10F4
:1015600080F8501080F8511080F85210A0F84C10FC
:101570004FF6FF7300EB42052B8200EB8205521CF5
:1015800069620A2AF6DB2046BDE870400721FFF7B2
:1015900041BF70BD44000020042904D80B46F82246
:1015A000142100F0C9B96FF00100704738B50C463E
:1015B0006A464F2100F0F4F89DF8001001F0C701D1
:1015C000217038BD2DE9FC410C46074600F054F867
:1015D000050048D16A466621384600F01CF905002E
:1015E00041D1BDF80000606001AA4D21384600F0ED
:1015F000D7F8050003D19DF804000009A0601B4E38
:10160000F07A68B104F11001384600F0CDFB050016
:1016100006D1208A2168814202D01021A160206079
:10162000134AE069736D90421BD2B16DD6F85CC06D
:1016300001FB00F7B7FBF2F796F8602058434FEA3A
:101640000C26121F4FF47A7396FBF2F2B0FBF3F004
:101650000244C81B07494843B0FBF2F000F036F9DA
:1016600000E00020E0602846BDE8FC814400002046
:10167000100905000071020038B50C466A46622167
:1016800000F08EF8002806D103499DF80020897AE1
:1016900011FB02F1216038BD440000202DE9F04724
:1016A000824628488AB005AA0488B0F802801C2126
:1016B000504600F075F8002823D19DF8145050468C
:1016C000C82706AA40F2091100F06AF84FF0FF3966
:1016D000B0B99DF8180006AA00F007064FF485710E
:1016E000504600F05DF858B99DF818005E2100EBF7
:1016F000800001EB4000761C16FB0070002803DA26
:1017000048460AB0BDE8F08705EB4501C1EBC511BD
:10171000C0EBC1056A46B821504600F05CF80028CD
:10172000EFD1009805FB08F50002444300904FF408
:10173000FA704443B4FBF5F082B22221504600F027
:101740008CFADEE74400002010B50A4604461C214E
:1017500000F060FA002809D12046FFF79FFF00281B
:1017600004D12046BDE8104000F092BA10BD70B51B
:101770000C460546192100F04DFA002806D12246F4
:101780002846BDE870401A2100F044BA70BD032914
:1017900003D80A46182100F03DBA6FF001007047E7
:1017A0007CB50646080A8DF8000015466C468DF893
:1017B0000110022221463046FFF754FE002809D1CD
:1017C000012221463046FFF73BFE002802D19DF85A
:1017D000001029707CBD7CB50646080A8DF8000013
:1017E00015466C468DF80110022221463046FFF75F
:1017F00039FE00280ED1042221463046FFF720FE94
:10180000002807D100999DF8032009BA21F0FF01B3
:10181000114329607CBD7CB50646080A8DF800009E
:1018200015466C468DF80110022221463046FFF71E
:1018300019FE00280AD1022221463046FFF700FE99
:10184000002803D1BDF8001049BA29807CBD0000F2
:1018500080210148FEF7E4BD0000024030B5044697
:10186000124885B0016841F4001101604FF44070E6
:10187000009012200025CDE901050420CDE9035098
:1018800069460B48FEF7EAFC0A4820600A48C4E9AA
:1018900001054FF48040C4E903506561A561E5612D
:1018A00020462562FEF7CCFD05B030BD4038024031
:1018B0000004024000540040801A0600C2B22021F9
:1018C0000148FEF7B2BD00000000024002460020C1
:1018D0004FF0804100E089089142FCD808E04318AD
:1018E000934203D8D21A01EB500000E04008890867
:1018F0000029F4D17047000038B5054600F044F9DE
:101900006A464FF490712846FFF74AFF04000FD152
:1019100008499DF800006A4608813F212846FFF7E4
:101920003FFF040004D19DF800102846FFF722FD78
:10193000204638BD440000202DE9FC410746080A36
:101940008DF8000016466C468DF801101D460222E7
:1019500021463846FFF786FD002811D10122A11C3F
:101960003846FFF76DFD00280AD19DF802000322DA
:10197000304028438DF8020021463846FFF772FDBB
:10198000BDE8FC8138B50446012240F2072100F091
:1019900041F901224FF40271204600F03BF9002288
:1019A0009621204600F036F954229721204600F077
:1019B00031F90022E321204600F02CF90422E42131
:1019C000204600F027F90222E521204600F022F906
:1019D0000122E621204600F01DF90322E7212046DE
:1019E00000F018F90222F521204600F013F9052233
:1019F000D921204600F00EF9002000906A462621E9
:101A00002046FFF7E8FE009808B94C4800900246CF
:101A1000DA21204600F00BF900229F21204600F039
:101A2000F9F82822A321204600F0F4F80022B7217B
:101A3000204600F0EFF82822BB21204600F0EAF80B
:101A40000922B221204600F0E5F80922CA212046E9
:101A500000F0E0F801224FF4CC71204600F0DAF8F3
:101A600017224FF4D871204600F0D4F8002240F23B
:101A7000AD11204600F0CEF80522FF21204600F0EF
:101A8000C9F805224FF48071204600F0C3F8052202
:101A900040F29911204600F0BDF81B224FF4D3719B
:101AA000204600F0B7F83E224FF4D671204600F0F1
:101AB000B1F81F2240F2A711204600F0ABF8002237
:101AC0003021204600F0A6F810221121204600F017
:101AD000A1F830224FF48571204600F09BF8462291
:101AE0003F21204600F096F8FF223121204600F0E9
:101AF00091F863224021204600F08CF801222E212B
:101B0000204600F087F8FF222C21204600F082F8C2
:101B100009221B21204600F07DF831223E2120467B
:101B200000F078F824221421204600F073F83221C6
:101B30002046FFF709FE002038BD0000F803CE0064
:101B400070B50C00054617D0032C15D80C4896210B
:101B500000EB440030F8022C284600F07EF80949DA
:101B60008C7291F96400242190FBF4F0C2B22846F3
:101B7000BDE8704000F04EB86FF0010070BD00008D
:101B800044250008440000203EB505466A46002171
:101B9000FFF706FE04002AD101AA03212846FFF719
:101BA000FFFD040023D102AA04212846FFF7F8FD17
:101BB00004001CD19DF80000E41EB42817D19DF844
:101BC0000400012813D19DF8080002280FD32846ED
:101BD000FFF7D8FE04000AD10648817A2846FFF7AD
:101BE000AFFF044600221621284600F013F82046D5
:101BF0003EBD00004400002038B504466A46162168
:101C00002046FFF7CDFD9DF80010012901D00028E6
:101C1000F4D038BD1CB50C0A8DF800408DF80110C9
:101C20008DF8022003226946FFF71CFC1CBD1CB581
:101C30000C0A8DF800408DF80110110E8DF802107D
:101C4000110C8DF80310110A8DF804108DF8052081
:101C500006226946FFF706FC1CBD1CB50C0A8DF870
:101C600000408DF80110110A8DF802108DF8032044
:101C700004226946FFF7F6FB1CBD000003490A6811
:101C80000B689B1A8342FBDB70470000DC030020DB
:101C90002DE9FE43804600246A462A21FFF780FD95
:101CA000002835D19DF8000018B9012428208DF8AE
:101CB0000000C0B24FF47A7110FB01F0C70901AA0D
:101CC0001E214046FFF7A7FD002821D1BDF80400E2
:101CD0004FF47A714843C6096A461C214046FFF713
:101CE0005FFD002814D10B4D9DF8000002AA85F875
:101CF0006000B8214046FFF76EFD002808D1029829
:101D0000E865B74201D3B81B00E00020A865204673
:101D1000BDE8FE834400002002E008C8121F08C18D
:101D2000002AFAD170477047002001E001C1121F5C
:101D3000002AFBD1704700002DE9F0410E461749FB
:101D4000174D002401EB401704EB440017F8242042
:101D500035F8201005EB800089B24068FEF765FB7E
:101D6000641C082CF0DB0F480D4D002400EB061618
:101D700015F1600504EB440016F8242035F8201016
:101D800005EB800089B24068FEF74FFB641C042C11
:101D9000F0DBBDE8F0410120FEF755BA3C01002020
:101DA000F80300207C0300202DE9F34F91B04FF0A1
:101DB00000084F48CDF82880CDF81480CDF8308049
:101DC000CDF83480CDF83880CDF82C800D46877A58
:101DD0006FF0004604AA4D211198FFF7E1FC0400C2
:101DE00076D19DF8100004AA000900906221119894
:101DF000FFF7D6FC040076D19DF8100010FB07F029
:101E0000089004AA64211198FFF7CAFC04006AD163
:101E10009DF810B005AA6C211198FFF7DCFC0400B6
:101E200061D10598B04201D9CDF814800CAA702177
:101E30001198FFF7D0FC040055D10DAA7421119818
:101E4000FFF7C9FC04004ED10EAA78211198FFF7C4
:101E5000C2FC040047D10AAA7C211198FFF7BBFC01
:101E6000040040D10BAA80211198FFF7B4FC0400B4
:101E700039D1DDE90A10814200D9084608B94FF28C
:101E8000186005994FF47A725143B1FBF0F80C9940
:101E90005143B1FBF0FA0D9901EB41014900514367
:101EA000B1FBF0F60E9901EB410149005143B1FB42
:101EB000F0F91BFB07F70098BAB2CDE90060434682
:101EC0000899119800F016F8002802DA4FF0FF3454
:101ED00009E028806F80C5E90369C5E9018A0A988D
:101EE00068610B98A86113B02046BDE8F08F000030
:101EF000440000202DE9FF4F002485B0D64803940C
:101F00000294139D867A1F46A246A1462346C6EB3D
:101F100006260C2D29D00D2D29D0B24202D200BFA9
:101F20004FF0010A0D463C2A04D2B7F5487F01D292
:101F3000B5B20124A52A04D2B7F5967F01D2B5B275
:101F40000124DDF848C041F64C58C44501D90123AD
:101F50001C464B2F01D201231C468346406A90B198
:101F6000B84206D2A7EB000C05E0B1B2DAE7B1B295
:101F7000D6E7A0EB070C4FF064080CFB08FCBCFB99
:101F8000F0F0322800D8A3B14FF0000C60464FF6B5
:101F9000FF7ECBF80CC000BF0BEB40080BEB8003BF
:101FA000401CA8F810E080B2C3F824C00A28F3D37C
:101FB00012E009204FEA0B0303EB400CBCF80E8043
:101FC000ACF8108003EB800C401EDCF8208000048D
:101FD000CCF82480000CEFD1BAF1000F02D0ABF89E
:101FE000101003E04FF6FF70ABF81000CBF8247030
:101FF000B2F5AF7F03D2B7F5167F03D203E0B7F592
:10200000617F00D301246A464FF4D6710598FFF72B
:10201000C7FBD0BB9DF8000001906A464FF4867163
:102020000598FFF7BDFB80BB9DF800A06A464FF402
:1020300088710598FFF7B4FB38BB01989DF80080C4
:102040003E2858460FD080F850A08BF85180ECB154
:1020500001983E280CD03E224FF4D6710598FFF728
:10206000D9FD90B904E080F84EA08BF84F80EEE7E0
:102070005846002100F84EAF80F8018080F802A099
:1020800080F80380CBF80C10E3E00EE00446007B00
:10209000C0070FD05FF03E008DF80000C2B24FF4D1
:1020A000D6710598FFF7B6FD30B14FF0FF3009B09B
:1020B000BDE8F08F3C20EFE7E068401CE06094F85A
:1020C0004F0094F85110884201D9411A00E00021D4
:1020D00084F8521094F84E0094F85020904201D9A0
:1020E000801A00E0101AB0F5E16F02D9A0F5E162A4
:1020F00000E0002200F5E160914265D3814263D89F
:1021000012994FF4967040F6C41291B164235F4364
:10211000B7FBF1F189B21E290BD2052901D810466F
:1021200007E04E48491F41431920B1FBF0F000F68B
:10213000C41080460020024683460346824601467C
:102140004FF6FF7704EB410CBCF810C0BC4507D03C
:10215000624404EB810C401CDCF824C080B2634470
:10216000491C89B20A2901D20628EBD318B1B2FB67
:10217000F0FBB3FBF0FA0020024603460146BE46E0
:1021800004EB41073F8A77450DD0A7EB0B0707FB10
:10219000072204EB8107401CD7F824C080B2ACEBC7
:1021A0000A0707FB0733491C89B20A2901D206280E
:1021B000E6D32B4F032808D3B2FBF0F18AB2B3FB6E
:1021C000F0F189B2B94202D31DE000221146042881
:1021D00001D2B5B219E040F6AC5341F288309942D1
:1021E00006D2A0EB08004843B0FBF3F101EB080076
:1021F000B0EBC20F02D90120029006E0824202D267
:102200000120039001E04FF00109B54204D1B4F878
:102210004C00F0B1401E1AE0B9F1000F0AD0B4F83A
:102220004C00B5B2801C80B2A4F84C00042810D930
:1022300004200CE0039838B1B4F84C0048B1B5B2B2
:10224000022803D9801E02E0029810B10020A4F8F1
:102250004C0028462BE700004400002068F7FFFFF1
:10226000905F010070B50A4E0A4D002406EB840011
:1022700090F8402004EB440035F8201005EB800076
:1022800089B24068FEF7D1F8641C042CEEDB70BD07
:102290007C0300205804002070B5044642F2B825A3
:1022A00004E00121284600F020F8641E002CF8D13B
:1022B000BDE87040FFF7D6BF10B5044600210A20E4
:1022C000FFF73AFD01210A20FFF736FD02210A201F
:1022D000FFF732FD03210A20FFF72EFD2046FDF710
:1022E000B2FFBDE81040FFF7BDBF2DE9F041044645
:1022F0004FF47A7390FBF3F00D460A2190FBF1F254
:1023000001FB1200642294FBF2F292FBF1F601FB56
:10231000162694FBF1F292FBF1F701FB172801FB63
:102320001247002804DDE91705EB91718D1004E0D8
:10233000002E02DD032195FBF1F542F20F718C4274
:1023400003DD0A20064680460746002C03DA0020FB
:102350000646804607469C4205DB0021FFF7ECFC61
:102360002846FFF78BFC632C06DD01213046FFF782
:10237000E3FC2846FFF782FC092C06DD02214046DB
:10238000FFF7DAFC2846FFF779FC03213846FFF710
:10239000D3FC2846BDE8F041FFF770BC124810B5E9
:1023A00010491CC81CC11CC81CC11CC81CC11CC8AD
:1023B0001CC11CC81CC11CC81CC190E81C001CC14D
:1023C00000F10C0478381CCC1CC11CC81CC11CC8F2
:1023D0001CC11CC881E81C000DC80C3181E80D002F
:1023E00010BD0000F8030020DC0000204FF0FF3497
:1023F0008EB0254600264FF001081E27FEF714FA7E
:10240000FEF710FF0720FEF75BFA00221146204678
:10241000FEF736FAFEF792FE4948FFF71FFAFFF77C
:10242000BDFF4FF49670FFF737FF0120FFF746FA24
:102430000120FFF723FC5220FFF7DEFB5220FFF7BD
:1024400023F85220FFF758FA4FF47A79FFF700FA91
:10245000A04213D004004FF0520007D0FFF746F817
:1024600050B14846FFF728FF022541E0FFF73EF84C
:102470000028F6D1002505E001253CE015B1012D2D
:1024800036D138E05220FEF7CFFF0099884203DCB6
:102490004046FFF711FF03E008464146FFF725FFDE
:1024A000BE4224D1002601215220FFF770F90BA96A
:1024B0005220FFF77BF85220FEF7B6FF00998842C2
:1024C00003DC4046FFF7F8FE03E008464146FFF70D
:1024D0000CFF0BA95220FFF769F89DF82C00042887
:1024E000E9D169465220FFF76DF8052123E0761CFB
:1024F000FFF7B8FEAAE741460C98FFF7F6FEBE428A
:10250000F5D1002601215220FEF76AFF0BA95220C7
:10251000FEF7F1FE41460C98FFF7E7FE0BA95220AB
:10252000FEF7E9FE9DF82C000428F3D10CA95220F7
:10253000FEF70EFF02215220FEF76CFFD7E70000E6
:1025400088040020FD007F005400B900720144029D
:102550000014000A00058002AB01400100010028C0
:102560000000000001020304010203040607080939
:102570004E6F742075736564203130004E6F742087
:1025800075736564203900004D617820436F6E7665
:10259000657267656E6365004E6F20546172676592
:1025A000742049676E6F7265000000004561726CAF
:1025B0007920436F6E76657267656E63652045733B
:1025C00074696D617465000046696C746572656458
:1025D00020627920706F73742070726F63657373FB
:1025E000696E6700564353454C20576174636864B5
:1025F0006F670000504C4C31204C6F636B00000043
:10260000504C4C32204C6F636B0000004D617820C1
:102610005369676E616C20546F204E6F697365203B
:10262000526174696F0000004E6F204572726F72C4
:1026300000000000564353454C20576174636864A2
:102640006F67205465737400564353454C20436FA5
:102650006E74696E75697479205465737400000036
:102660005261772052616E67696E6720416C676FB7
:1026700020556E646572666C6F770000526177203A
:1026800052616E67696E6720416C676F204F766597
:1026900072666C6F77000000B8260008000000200A
:1026A000F8030000F001000880270008F80300206C
:1026B000C8040000281D00081328261B0848041A17
:1026C000340413E4251B08F40411190C1AAC081A7D
:1026D00088041A98041A7C041A70041A0C181A60D8
:1026E000041A7C041A64041A80041AC81812551AB1
:1026F00064021A0102025D024201440402405210C7
:10270000490C4976490C3924590C39055930428015
:102710004A080C4931590C3931590CDA0460590C0A
:102720009A200C9A080C091AA869040912140912B3
:102730001CE90CA914E944E90C09161009165C09F6
:102740001E68091218091AC00922400912800916C8
:1027500004E9A0091A4C0916900926580916C80957
:102760001A58091220091EB80922480942140111F9
:102770008B24F474400802030406070809000000D3
:040000050800019559
:00000001FF
